{
  "contractName": "parkingProvider",
  "abi": [
    {
      "inputs": [],
      "stateMutability": "nonpayable",
      "type": "constructor"
    },
    {
      "inputs": [
        {
          "internalType": "uint256",
          "name": "",
          "type": "uint256"
        }
      ],
      "name": "parkingLots",
      "outputs": [
        {
          "internalType": "uint256",
          "name": "id",
          "type": "uint256"
        },
        {
          "internalType": "string",
          "name": "emailId",
          "type": "string"
        },
        {
          "internalType": "string",
          "name": "name",
          "type": "string"
        },
        {
          "internalType": "address",
          "name": "walletAddress",
          "type": "address"
        },
        {
          "internalType": "uint256",
          "name": "fee",
          "type": "uint256"
        },
        {
          "internalType": "uint256",
          "name": "totalSlots",
          "type": "uint256"
        },
        {
          "internalType": "uint256",
          "name": "availableParkingSpots",
          "type": "uint256"
        },
        {
          "internalType": "int256",
          "name": "lattitudeInt",
          "type": "int256"
        },
        {
          "internalType": "int256",
          "name": "lattitudeDec",
          "type": "int256"
        },
        {
          "internalType": "int256",
          "name": "longitudeInt",
          "type": "int256"
        },
        {
          "internalType": "int256",
          "name": "longitudeDec",
          "type": "int256"
        }
      ],
      "stateMutability": "view",
      "type": "function",
      "constant": true
    },
    {
      "inputs": [],
      "name": "totalParkingLots",
      "outputs": [
        {
          "internalType": "uint256",
          "name": "",
          "type": "uint256"
        }
      ],
      "stateMutability": "view",
      "type": "function",
      "constant": true
    },
    {
      "inputs": [
        {
          "internalType": "string",
          "name": "emailId",
          "type": "string"
        },
        {
          "internalType": "address payable",
          "name": "walletAddress",
          "type": "address"
        },
        {
          "internalType": "string",
          "name": "name",
          "type": "string"
        },
        {
          "internalType": "uint256",
          "name": "fee",
          "type": "uint256"
        },
        {
          "internalType": "uint256",
          "name": "totalSlots",
          "type": "uint256"
        },
        {
          "internalType": "int256",
          "name": "lattitudeInt",
          "type": "int256"
        },
        {
          "internalType": "int256",
          "name": "lattitudeDec",
          "type": "int256"
        },
        {
          "internalType": "int256",
          "name": "longitudeInt",
          "type": "int256"
        },
        {
          "internalType": "int256",
          "name": "longitudeDec",
          "type": "int256"
        }
      ],
      "name": "createParkingLot",
      "outputs": [
        {
          "internalType": "int256",
          "name": "",
          "type": "int256"
        }
      ],
      "stateMutability": "nonpayable",
      "type": "function"
    },
    {
      "inputs": [
        {
          "internalType": "uint256",
          "name": "id",
          "type": "uint256"
        },
        {
          "internalType": "uint256",
          "name": "fee",
          "type": "uint256"
        }
      ],
      "name": "updateFee",
      "outputs": [
        {
          "internalType": "bool",
          "name": "success",
          "type": "bool"
        }
      ],
      "stateMutability": "nonpayable",
      "type": "function"
    },
    {
      "inputs": [
        {
          "internalType": "uint256",
          "name": "id",
          "type": "uint256"
        },
        {
          "internalType": "uint256",
          "name": "totalSlots",
          "type": "uint256"
        }
      ],
      "name": "updateTotalSlot",
      "outputs": [
        {
          "internalType": "bool",
          "name": "success",
          "type": "bool"
        }
      ],
      "stateMutability": "nonpayable",
      "type": "function"
    },
    {
      "inputs": [
        {
          "internalType": "uint256",
          "name": "id",
          "type": "uint256"
        }
      ],
      "name": "deleteParkingLot",
      "outputs": [
        {
          "internalType": "bool",
          "name": "success",
          "type": "bool"
        }
      ],
      "stateMutability": "nonpayable",
      "type": "function"
    },
    {
      "inputs": [
        {
          "internalType": "uint256",
          "name": "id",
          "type": "uint256"
        }
      ],
      "name": "getParkingLot",
      "outputs": [
        {
          "components": [
            {
              "internalType": "uint256",
              "name": "id",
              "type": "uint256"
            },
            {
              "internalType": "string",
              "name": "emailId",
              "type": "string"
            },
            {
              "internalType": "string",
              "name": "name",
              "type": "string"
            },
            {
              "internalType": "address",
              "name": "walletAddress",
              "type": "address"
            },
            {
              "internalType": "uint256",
              "name": "fee",
              "type": "uint256"
            },
            {
              "internalType": "uint256",
              "name": "totalSlots",
              "type": "uint256"
            },
            {
              "internalType": "uint256",
              "name": "availableParkingSpots",
              "type": "uint256"
            },
            {
              "internalType": "int256",
              "name": "lattitudeInt",
              "type": "int256"
            },
            {
              "internalType": "int256",
              "name": "lattitudeDec",
              "type": "int256"
            },
            {
              "internalType": "int256",
              "name": "longitudeInt",
              "type": "int256"
            },
            {
              "internalType": "int256",
              "name": "longitudeDec",
              "type": "int256"
            }
          ],
          "internalType": "struct parkingProvider.parkingLot",
          "name": "",
          "type": "tuple"
        }
      ],
      "stateMutability": "view",
      "type": "function",
      "constant": true
    },
    {
      "inputs": [],
      "name": "getTotalParkingLots",
      "outputs": [
        {
          "internalType": "uint256",
          "name": "TotalParkingLots",
          "type": "uint256"
        }
      ],
      "stateMutability": "view",
      "type": "function",
      "constant": true
    }
  ],
  "bytecode": "0x608060405234801561001057600080fd5b506000600181905550611702806100286000396000f3fe608060405234801561001057600080fd5b50600436106100885760003560e01c8063b5564f2b1161005b578063b5564f2b1461014d578063d992fcb31461016b578063df5d16de1461019b578063fd3d1402146101d557610088565b8063114ea69c1461008d5780632740c197146100bd578063481ab867146100ed5780639610a5dd1461011d575b600080fd5b6100a760048036038101906100a29190610cd8565b6101f3565b6040516100b49190610de9565b60405180910390f35b6100d760048036038101906100d29190610e04565b610380565b6040516100e49190610e5f565b60405180910390f35b61010760048036038101906101029190610e04565b6103c9565b6040516101149190610e5f565b60405180910390f35b61013760048036038101906101329190610e7a565b610412565b6040516101449190610e5f565b60405180910390f35b610155610636565b6040516101629190610eb6565b60405180910390f35b61018560048036038101906101809190610e7a565b610640565b6040516101929190611085565b60405180910390f35b6101b560048036038101906101b09190610e7a565b610847565b6040516101cc9b9a99989796959493929190611100565b60405180910390f35b6101dd6109e1565b6040516101ea9190610eb6565b60405180910390f35b6000806040518061016001604052806001805461021091906111e8565b81526020018c81526020018a81526020018b73ffffffffffffffffffffffffffffffffffffffff1681526020018981526020018881526020018881526020018781526020018681526020018581526020018481525090806001815401808255809150506001900390600052602060002090600b02016000909190919091506000820151816000015560208201518160010190816102ad9190611428565b5060408201518160020190816102c39190611428565b5060608201518160030160006101000a81548173ffffffffffffffffffffffffffffffffffffffff021916908373ffffffffffffffffffffffffffffffffffffffff1602179055506080820151816004015560a0820151816005015560c0820151816006015560e082015181600701556101008201518160080155610120820151816009015561014082015181600a0155505060016000815480929190610369906114fa565b919050555060015490509998505050505050505050565b6000600154831061039457600090506103c3565b81600084815481106103a9576103a8611542565b5b90600052602060002090600b020160040181905550600190505b92915050565b600060015483106103dd576000905061040c565b81600084815481106103f2576103f1611542565b5b90600052602060002090600b020160050181905550600190505b92915050565b600060015482106104265760009050610631565b6000600180546104369190611571565b8154811061044757610446611542565b5b90600052602060002090600b02016000838154811061046957610468611542565b5b90600052602060002090600b0201600082015481600001556001820181600101908161049591906115bb565b50600282018160020190816104aa91906115bb565b506003820160009054906101000a900473ffffffffffffffffffffffffffffffffffffffff168160030160006101000a81548173ffffffffffffffffffffffffffffffffffffffff021916908373ffffffffffffffffffffffffffffffffffffffff160217905550600482015481600401556005820154816005015560068201548160060155600782015481600701556008820154816008015560098201548160090155600a82015481600a015590505060006001805461056b9190611571565b8154811061057c5761057b611542565b5b90600052602060002090600b02016000808201600090556001820160006105a391906109e7565b6002820160006105b391906109e7565b6003820160006101000a81549073ffffffffffffffffffffffffffffffffffffffff0219169055600482016000905560058201600090556006820160009055600782016000905560088201600090556009820160009055600a820160009055505060016000815480929190610627906116a3565b9190505550600190505b919050565b6000600154905090565b610648610a27565b6000828154811061065c5761065b611542565b5b90600052602060002090600b020160405180610160016040529081600082015481526020016001820180546106909061124b565b80601f01602080910402602001604051908101604052809291908181526020018280546106bc9061124b565b80156107095780601f106106de57610100808354040283529160200191610709565b820191906000526020600020905b8154815290600101906020018083116106ec57829003601f168201915b505050505081526020016002820180546107229061124b565b80601f016020809104026020016040519081016040528092919081815260200182805461074e9061124b565b801561079b5780601f106107705761010080835404028352916020019161079b565b820191906000526020600020905b81548152906001019060200180831161077e57829003601f168201915b505050505081526020016003820160009054906101000a900473ffffffffffffffffffffffffffffffffffffffff1673ffffffffffffffffffffffffffffffffffffffff1673ffffffffffffffffffffffffffffffffffffffff168152602001600482015481526020016005820154815260200160068201548152602001600782015481526020016008820154815260200160098201548152602001600a820154815250509050919050565b6000818154811061085757600080fd5b90600052602060002090600b02016000915090508060000154908060010180546108809061124b565b80601f01602080910402602001604051908101604052809291908181526020018280546108ac9061124b565b80156108f95780601f106108ce576101008083540402835291602001916108f9565b820191906000526020600020905b8154815290600101906020018083116108dc57829003601f168201915b50505050509080600201805461090e9061124b565b80601f016020809104026020016040519081016040528092919081815260200182805461093a9061124b565b80156109875780601f1061095c57610100808354040283529160200191610987565b820191906000526020600020905b81548152906001019060200180831161096a57829003601f168201915b5050505050908060030160009054906101000a900473ffffffffffffffffffffffffffffffffffffffff169080600401549080600501549080600601549080600701549080600801549080600901549080600a015490508b565b60015481565b5080546109f39061124b565b6000825580601f10610a055750610a24565b601f016020900490600052602060002090810190610a239190610a97565b5b50565b604051806101600160405280600081526020016060815260200160608152602001600073ffffffffffffffffffffffffffffffffffffffff168152602001600081526020016000815260200160008152602001600081526020016000815260200160008152602001600081525090565b5b80821115610ab0576000816000905550600101610a98565b5090565b6000604051905090565b600080fd5b600080fd5b600080fd5b600080fd5b6000601f19601f8301169050919050565b7f4e487b7100000000000000000000000000000000000000000000000000000000600052604160045260246000fd5b610b1b82610ad2565b810181811067ffffffffffffffff82111715610b3a57610b39610ae3565b5b80604052505050565b6000610b4d610ab4565b9050610b598282610b12565b919050565b600067ffffffffffffffff821115610b7957610b78610ae3565b5b610b8282610ad2565b9050602081019050919050565b82818337600083830152505050565b6000610bb1610bac84610b5e565b610b43565b905082815260208101848484011115610bcd57610bcc610acd565b5b610bd8848285610b8f565b509392505050565b600082601f830112610bf557610bf4610ac8565b5b8135610c05848260208601610b9e565b91505092915050565b600073ffffffffffffffffffffffffffffffffffffffff82169050919050565b6000610c3982610c0e565b9050919050565b610c4981610c2e565b8114610c5457600080fd5b50565b600081359050610c6681610c40565b92915050565b6000819050919050565b610c7f81610c6c565b8114610c8a57600080fd5b50565b600081359050610c9c81610c76565b92915050565b6000819050919050565b610cb581610ca2565b8114610cc057600080fd5b50565b600081359050610cd281610cac565b92915050565b60008060008060008060008060006101208a8c031215610cfb57610cfa610abe565b5b60008a013567ffffffffffffffff811115610d1957610d18610ac3565b5b610d258c828d01610be0565b9950506020610d368c828d01610c57565b98505060408a013567ffffffffffffffff811115610d5757610d56610ac3565b5b610d638c828d01610be0565b9750506060610d748c828d01610c8d565b9650506080610d858c828d01610c8d565b95505060a0610d968c828d01610cc3565b94505060c0610da78c828d01610cc3565b93505060e0610db88c828d01610cc3565b925050610100610dca8c828d01610cc3565b9150509295985092959850929598565b610de381610ca2565b82525050565b6000602082019050610dfe6000830184610dda565b92915050565b60008060408385031215610e1b57610e1a610abe565b5b6000610e2985828601610c8d565b9250506020610e3a85828601610c8d565b9150509250929050565b60008115159050919050565b610e5981610e44565b82525050565b6000602082019050610e746000830184610e50565b92915050565b600060208284031215610e9057610e8f610abe565b5b6000610e9e84828501610c8d565b91505092915050565b610eb081610c6c565b82525050565b6000602082019050610ecb6000830184610ea7565b92915050565b610eda81610c6c565b82525050565b600081519050919050565b600082825260208201905092915050565b60005b83811015610f1a578082015181840152602081019050610eff565b60008484015250505050565b6000610f3182610ee0565b610f3b8185610eeb565b9350610f4b818560208601610efc565b610f5481610ad2565b840191505092915050565b6000610f6a82610c0e565b9050919050565b610f7a81610f5f565b82525050565b610f8981610ca2565b82525050565b600061016083016000830151610fa86000860182610ed1565b5060208301518482036020860152610fc08282610f26565b91505060408301518482036040860152610fda8282610f26565b9150506060830151610fef6060860182610f71565b5060808301516110026080860182610ed1565b5060a083015161101560a0860182610ed1565b5060c083015161102860c0860182610ed1565b5060e083015161103b60e0860182610f80565b50610100830151611050610100860182610f80565b50610120830151611065610120860182610f80565b5061014083015161107a610140860182610f80565b508091505092915050565b6000602082019050818103600083015261109f8184610f8f565b905092915050565b600082825260208201905092915050565b60006110c382610ee0565b6110cd81856110a7565b93506110dd818560208601610efc565b6110e681610ad2565b840191505092915050565b6110fa81610f5f565b82525050565b600061016082019050611116600083018e610ea7565b8181036020830152611128818d6110b8565b9050818103604083015261113c818c6110b8565b905061114b606083018b6110f1565b611158608083018a610ea7565b61116560a0830189610ea7565b61117260c0830188610ea7565b61117f60e0830187610dda565b61118d610100830186610dda565b61119b610120830185610dda565b6111a9610140830184610dda565b9c9b505050505050505050505050565b7f4e487b7100000000000000000000000000000000000000000000000000000000600052601160045260246000fd5b60006111f382610c6c565b91506111fe83610c6c565b9250828201905080821115611216576112156111b9565b5b92915050565b7f4e487b7100000000000000000000000000000000000000000000000000000000600052602260045260246000fd5b6000600282049050600182168061126357607f821691505b6020821081036112765761127561121c565b5b50919050565b60008190508160005260206000209050919050565b60006020601f8301049050919050565b600082821b905092915050565b6000600883026112de7fffffffffffffffffffffffffffffffffffffffffffffffffffffffffffffffff826112a1565b6112e886836112a1565b95508019841693508086168417925050509392505050565b6000819050919050565b600061132561132061131b84610c6c565b611300565b610c6c565b9050919050565b6000819050919050565b61133f8361130a565b61135361134b8261132c565b8484546112ae565b825550505050565b600090565b61136861135b565b611373818484611336565b505050565b5b818110156113975761138c600082611360565b600181019050611379565b5050565b601f8211156113dc576113ad8161127c565b6113b684611291565b810160208510156113c5578190505b6113d96113d185611291565b830182611378565b50505b505050565b600082821c905092915050565b60006113ff600019846008026113e1565b1980831691505092915050565b600061141883836113ee565b9150826002028217905092915050565b61143182610ee0565b67ffffffffffffffff81111561144a57611449610ae3565b5b611454825461124b565b61145f82828561139b565b600060209050601f8311600181146114925760008415611480578287015190505b61148a858261140c565b8655506114f2565b601f1984166114a08661127c565b60005b828110156114c8578489015182556001820191506020850194506020810190506114a3565b868310156114e557848901516114e1601f8916826113ee565b8355505b6001600288020188555050505b505050505050565b600061150582610c6c565b91507fffffffffffffffffffffffffffffffffffffffffffffffffffffffffffffffff8203611537576115366111b9565b5b600182019050919050565b7f4e487b7100000000000000000000000000000000000000000000000000000000600052603260045260246000fd5b600061157c82610c6c565b915061158783610c6c565b925082820390508181111561159f5761159e6111b9565b5b92915050565b6000815490506115b48161124b565b9050919050565b8181036115c95750506116a1565b6115d2826115a5565b67ffffffffffffffff8111156115eb576115ea610ae3565b5b6115f5825461124b565b61160082828561139b565b6000601f83116001811461162f576000841561161d578287015490505b611627858261140c565b86555061169a565b601f19841661163d8761127c565b96506116488661127c565b60005b828110156116705784890154825560018201915060018501945060208101905061164b565b8683101561168d5784890154611689601f8916826113ee565b8355505b6001600288020188555050505b5050505050505b565b60006116ae82610c6c565b9150600082036116c1576116c06111b9565b5b60018203905091905056fea2646970667358221220e5d9921ae4f4b25a774f6a35cb6bf76faad3eb27c03ec49b5ce665f8a1afd02764736f6c63430008110033",
  "immutableReferences": {},
  "source": "// SPDX-License-Identifier: UNLICENSED\r\n\r\npragma solidity ^0.8.0;\r\n\r\ncontract parkingProvider {\r\n    \r\n   struct parkingLot{\r\n      uint id;\r\n    //   string parkingId; // auto - generated\r\n      string emailId;\r\n      string name;\r\n      address walletAddress;\r\n      uint fee;\r\n      uint totalSlots;\r\n      uint availableParkingSpots; // initially 0\r\n      // location of parking lot (lattitude and longitude)\r\n      int lattitudeInt;\r\n      int lattitudeDec;\r\n      int longitudeInt;\r\n      int longitudeDec;\r\n   }\r\n  \r\n   parkingLot[] public parkingLots; \r\n\r\n   uint256 public totalParkingLots;\r\n  \r\n  \r\n   constructor() {\r\n      totalParkingLots = 0;\r\n   }\r\n\r\n   // creating a new paking lot if it is not already created\r\n   function createParkingLot( string memory emailId ,address payable walletAddress, string memory name, uint fee, uint totalSlots, int lattitudeInt,int lattitudeDec, int longitudeInt,int longitudeDec) public returns (int){\r\n\r\n      parkingLots.push(parkingLot(totalParkingLots+1,emailId,name,walletAddress,fee,totalSlots,totalSlots,lattitudeInt,lattitudeDec,longitudeInt,longitudeDec));\r\n      totalParkingLots++;\r\n      \r\n      return int(totalParkingLots);\r\n   }\r\n\r\n   // updating cost per hour\r\n   function updateFee(uint id, uint fee) public returns (bool success){\r\n      // if id is not valid\r\n      if(id>=totalParkingLots)    return false;\r\n      parkingLots[id].fee=fee;\r\n      return true;\r\n   }\r\n\r\n   // updating total slots\r\n   function updateTotalSlot(uint id, uint totalSlots) public returns (bool success){\r\n      // if id is not valid\r\n      if(id>=totalParkingLots)    return false;\r\n      parkingLots[id].totalSlots=totalSlots;\r\n      return true;\r\n   }\r\n\r\n   \r\n   // delete a parking lot\r\n   function deleteParkingLot(uint id) public returns(bool success){\r\n\r\n      // if id is not valid\r\n      if(id>=totalParkingLots)    return false;\r\n\r\n      parkingLots[id]=parkingLots[totalParkingLots-1];\r\n      delete parkingLots[totalParkingLots-1];\r\n      totalParkingLots--;\r\n      return true;\r\n   }\r\n   \r\n     \r\n   function getParkingLot(uint id) public view returns(parkingLot memory){\r\n      return parkingLots[id];\r\n   }     \r\n   \r\n   \r\n   function getTotalParkingLots() public view returns (uint256 TotalParkingLots){\r\n      return totalParkingLots;\r\n   }\r\n}",
  "sourcePath": "C:\\Users\\vinay\\OneDrive\\Desktop\\Final Year Project\\web 3 Blockchain\\contracts\\parkingProvider.sol",
  "compiler": {
    "name": "solc",
    "version": "0.8.17+commit.8df45f5f.Emscripten.clang"
  },
  "schemaVersion": "3.4.11",
  "updatedAt": "2023-06-06T22:08:10.536Z",
  "networkType": "ethereum",
  "devdoc": {
    "kind": "dev",
    "methods": {},
    "version": 1
  },
  "userdoc": {
    "kind": "user",
    "methods": {},
    "version": 1
  }
}